:10000000C2C0DCC006C2DAC0D9C0D8C0D7C0D6C012
:10001000D5C0D4C0D3C0D2C0D1C0D0C0CFC00401DD
:1000200002020202020201010101040102020404AF
:100030000404040404040404040404040404040381
:1000400004009EB2BCD4EDD4BCEDD4BCB2D4BCD4BC
:10005000ED7DED0002020101010102020202010137
:100060000101020202020101010102020101020278
:100070000204040404040404040404040404040442
:10008000040404040404050404040404040404042F
:100090000400D49E9E8D9EA7BCBCBC8D8D7D8D9E84
:1000A000A7D4D47D7DED7D8D9EBCD4D4BC8DA79E80
:1000B0000004040404040404040404040404050502
:1000C0000005000505000500000004BCBC00BC00E4
:1000D000EDBC009E0000009E040401020401010228
:1000E00002020204020101020202010102020201F3
:1000F00001020202020404040404040504050505C7
:1001000004040400040505050404040405040404AF
:100110000404040404009EBCB29EED7DEDD4ED7D8C
:100120008D9E007DEDD4ED7D8D8D9EEDBC9E8D9ED2
:10013000B2BCD4ED00020204020204020202020474
:100140000402020202020202020202020204040487
:10015000040404040404040504040400050505055E
:1001600005040404040404040405007D7D7D7D7DF4
:100170007D7DD49E8D7D00EDEDEDEDED7D7D7D7D74
:100180008D8D7D8DD40011241FBECFE5D2E0DEBF62
:10019000CDBF10E0A0E6B0E0E4E3F5E002C00590DA
:1001A0000D92AC3AB107D9F720E0ACEAB0E001C05B
:1001B0001D92AF3AB207E1F74CD1BAC121CF20E08E
:1001C00030E090E0AC01022E02C0559547950A94AC
:1001D000E2F740FF06C0C19A00C000C00000C1980D
:1001E00005C0C19A0000C19800C000002F5F3F4FBA
:1001F0002830310539F70895CF93DF93D82F862F14
:10020000C42FDDDF8D2FDBDF8C2FD9DFDF91CF9186
:100210000895CF9380916000882301F1C0E0809120
:10022000AC00893110F01092AC002091AC00822F0C
:1002300090E0820F911D820F911DFC01EF59FF4F3D
:10024000428161818081D8DF8091AC008F5F809393
:10025000AC00CF5F80916000C81708F3CF9108957C
:10026000C198B998C0980895C09A8FEC97E001970B
:10027000F1F700C00000B99AC198089590E990BFC5
:100280009FEF980F9DBD20B79BE0961B922B90BFD0
:10029000811102C080E980BF0895CF92DF92EF9272
:1002A000FF920F931F93CF93DF93DEDF8CB58061B6
:1002B0008CBD0BEC10E0C1EBD0E00F2EFEEBEF2E6F
:1002C000F0E0FF2EF02D0F2EF8EDCF2EF0E0DF2E18
:1002D000F02DF801849181119CDFF7016491F80100
:1002E0008491CCDFFE018491882379F080E0FFEBDC
:1002F0002AED30E0F15020403040E1F700C000002E
:100300008F5FFE019491891790F310BEFFEB2AEDE9
:1003100030E0F15020403040E1F700C000000F5FB6
:100320001F4F21968FEFE81AF80A0C151D0589F664
:100330008CB58F7E8CBDC49893DFDF91CF911F91D8
:100340000F91FF90EF90DF90CF9008959F92AF9222
:10035000BF92CF92DF92EF92FF920F931F93CF93B2
:10036000DF936C01962EA72EE42EF52EB22E7CDFA5
:100370008CB580618CBDBB2009F43AC08601CE2DBE
:10038000DF2DE92CFA2CBA948B2D90E00196C80E43
:10039000D91EF801849181113CDFF7016491F801C5
:1003A00084916CDFFE018491882379F090E0FFEF67
:1003B00020E732E0F15020403040E1F700C000007B
:1003C0009F5FFE012491921790F310BEFFE728E390
:1003D00031E0F15020403040E1F700C000000F5FF5
:1003E0001F4F21968FEFE81AF80A0C151D0589F6A4
:1003F0008CB58F7E8CBDC49833DFDF91CF911F9178
:100400000F91FF90EF90DF90CF90BF90AF909F90B3
:1004100008951F920F920FB60F9211242F938F936E
:100420009F932FEF81EE94E0215080409040E1F7C0
:1004300000C00000B39BFECF8091AD008F5F809322
:10044000AD009F918F912F910F900FBE0F901F9035
:100450001895B99AB89ABC9ABB98C39A01DFAB9A1F
:100460008BB780628BBF789416B880B5876080BDEB
:1004700085B7877E806185BFC1E202C08093AE00F0
:10048000789485B7806285BF889585B78F7D85BF55
:10049000F8948091AD00813230F06C2F3DD09111F5
:1004A00002C0FBDEEDCF8091AE00811108C02BE1D0
:1004B00045E351E060E571E08BE691E047DF809134
:1004C000AE00813041F42FE148ED50E067EF70E07D
:1004D00086E191E03BDF8091AE00833041F422E180
:1004E0004EE150E060E370E082E490E02FDF809125
:1004F000AE00823041F42FE144E550E063E770E064
:1005000082E990E023DF8091AE008F5F843009F0B4
:10051000B5CF1092AE00B4CF991B79E004C0991FFB
:10052000961708F0961B881F7A95C9F7809508954D
:04053000F894FFCF6D
:1005340003000064C800C800640064C8C8C8C86474
:1005440000646400C80000C86464646464000064F7
:1005540000640000C86464006464C80064C864C8BB
:10056400006400C864C864C80000C80064C86400AB
:0C05740000C8C8C864C8C8C800C86464D7
:00000001FF
